:400000000040002011000000350600003506000008B500F029FBC04638B51222214B1A6001F098F8204800F0D7FF012001F0B2F8302000F0E1FF1D4A1D4B1A601D4C802519
:40004000ED0525601C4A116802230B4313601B4A1B4B1A601B4A136808218B431360FA20C00001F043F8184801F036F89C229202164B1A60164A174B1A6080221206164BAC
:400080001A608022D202154B1A604022144B1A600820144900F0F6FF082000F0E7FF256038BDC04630001040001BB7000600008004010B400C020B4078002E402D3E000081
:4000C0007C002E406CF02E40DC0500000003014040FF00800000014008010B4000010B402C010140AD12000038B572B600224C4B1A60002410E04B4863001A1952008218E9
:4001000091881B195B001A5AC31858880004104300F022FB0134E4B2022CECD9002412E0404DA3001A195200AA18918AD08A00040843131C128B598B09041143802200F0D2
:4001400011FB0134E4B2002CEAD03649081C2030443100F0D7FA80225200334B1A80FF3A324B1A70EE221206314B1A60C0229203304B1A60C02292042F4B1A60CC229205D2
:400180002E4B1A6099231B042D4A13602D492E4A1160802189042D4A1160A221C9052C4A11602C4A1360802109062B4A1160802189052A4A11602A4A1360D0225205294B63
:4001C0001A60294B197802220A431A70274802783C218A4328390A430270197816220A431A70D8231B04224A13602021214A11602149224A1160C02221490A60B020C0030C
:40020000204908608020C0011F4908601F490A601F4A1360FFF700FF00F08EFA38BDC0466CF02E40404E010000600F4002600F4000000240000102400002024000030240DF
:4002400000500F400400990010500F4014500F4018500F4020500F4024500F4028500F4030500F4038500F4000700F4001700F400800044000010440801D0300080104403D
:4002800000020440080204400C020440000304400803044010B5064C2378002B07D1054B002B02D0044800E000BF0123237010BD1810002000000000684D010008B5084B43
:4002C000002B03D00748084900E000BF07480368002B00D108BD064B002BFBD09847F9E700000000684D01001C100020A80B00200000000008B50D4B1B78032B0ED1002096
:4003000000F0C0FA00280FD0032000F0A7FDFA20400000F0C9FE00F0A7FD05E0062B03D100F02CFB00F0A0FD08BDC046AC0B002008B562B6064800F07DFB064800F04EFA6F
:40034000054800F0BFFD00F007FE01F01FFFFCE7BD04000041050000F5020000F8B5334B1D78334B5B789D420ED35DE063001B195B002F480430C0182E49062201F0B6FADC
:40038000002806D0013400E00024062CEEDD002600E00126002E14D1012318E063001B195B0025481818A3001B199B00234AD318D8602049062201F099FA002806D00134D4
:4003C00000E00024A542E9DC012300E00023012E2AD1012B28D16B005B195B00164A9A18164CAB005D19AD006519EA601148037813700E4D29788A0053189B00E3184678F7
:40040000DF687E708678DF68BE70C678DF680833FE705B6806791E7153189B00E318DB6842795A7101312970F8BDC04634100020AC0B0020AC22002070220020CC220020DC
:40044000F0B585B0012000F0F1FC642000F02CFE002418E0A3001B199B00144AD318D9684A790B79CF788E7848780978104D0097019602900391281C0E4901F057FA281C47
:4004800000F086FD01340C4B1B78A342E2DC002000F0CCFC012000F0D5FC002000F0D2FC0122054B5A7005B0F0BDC046CC2200200C2200201C4E01003410002000B583B0B7
:4004C000D8235B00984205D1002001216B46DA1D00F0FCFA6B4607331B78012B02D0022B05D00AE0064B18780DF084F905E0FFF7A7FF034B18780DF07DF903B000BDC0461B
:400500008023002000210EE08B005B189B000A48C318DB689B1800201870013200E00022062AF1DD0131054B1B788B42F7DC0022024B1A707047C046CC2200203410002075
:4005400030B587B001AC231C0A1C32CA32C312CA12C32B2863D88000324B1B589F46324B1B78032B5BD104222F4B1A70062000F075FC54E001AB1B78002B08D04FE0049A6A
:40058000D218D179294AD1540133DBB200E00023052BF4D901A8FFF7E1FE40E00522224B1A70012000F05AFC39E01F4B1B78052B0DD11F4A5278002A09D103321A4B1A700C
:4005C000002000F0AFF9052000F048FC27E0052B25D1174B5B78002B21D00322124B1A700022134B5A70FFF78DFF18E000F08CF9032000F033FC12E00B4B1B78062B06D102
:400600000322094B1A70002000F03CF907E0032B05D10622044B1A70052000F01FFC07B030BDC0466C4D0100AC0B0020AC22002034100020FEE7C04608B5031C084A106838
:40064000C318084A9A1A802A02DC054A136005E001F020F90C2303600120404208BDC046DC0B00209023002070B50F4E0F4D13E029686B68AC68002202E001C901C3043275
:40068000A242FAD1E868002202E0002102C304328242FAD11035013E002EE9D101F000F9FFF746FEFEE7C046010000006054010008B50F4A136801218B43136000230AE05A
:4006C000032B03D89A000B49505800E00A4899000A4A885001332F2BF2D9FFF705FD0022074B1A60024A116801230B43136008BD000010400000000035060000000000200B
:40070000C0000020F0B50025002711E0BB00C658F3B2FF22964308E06A008A181478A419527822700135013BDBB2002BF4D10137082FEBD9F0BDC0460323044A1360044ADC
:4007400013600022034B1A607047C0463000304030003140000E3F4008B50A1C002101F0DDF808BD08B501F0D0F808BD08B500F05FF908BD08B50022114B1A70114B1A7052
:40078000114B1A70114B1A701149488C114B1880888C5880203188791873C97919710621D981223119825A82FA2189009982DA82013A1A831F32084B1A80FFF7D7FF08BDA9
:4007C000842300207C2300208323002082230020E00B00205C2300207623002010B590B0041C0BA82049142201F08FF820231F4AD35C002B05D1FFF7BDFF012120231B4A3E
:40080000D154002C2CD01A4B1C6008A805AA426006AB0893002101811B311980598017391971002313701231694401F085FD002817D1052300930023019302930D480E4936
:40084000AE2212010BAB01F0D3FC002809D101220A4B1A700A48102107320FF0CFF900E0012010B010BDC0463C5101003810002058230020950B0000C80000207A2300202E
:400880005051010008B502282ED81B4B1B78062B2CD11A4B1B785B072BD4002809D1184B0A229A871632196B0A801B6B10325A800CE001280AD1124B96229A87C822D2009D
:4008C000196B0A801B6B8022D2015A800D4B18700B482C300DF0D4FA00280CD1074A117804230B43137006E0012004E00420FF3001E00420FF3008BD7A2300208423002029
:40090000E00B00208323002008B50DF051FB034A117808230B43137008BDC046842300207047C04608B5022820D8002806D1104B00221A8530325A849A8409E0012807D17D
:400940000B4B96221A85802212015A84F83A9A84084B1870064820300DF014FA002806D1054A117804230B43137000E0012008BDE00B0020822300208423002008B50DF07D
:400980002DFA034A117808230B43137008BDC0468423002010B50B4B1B78052B0ED10DF0E3F9041C084B1B88002B01D00AF0D6F8002C05D10622034B1A7001E00424FF34FE
:4009C000201C10BD7A2300207623002003784078000218437047C04638B583890D2B20D1041C04300021221C33330FF055F9051E11D16068FFF7EAFF830706D50A4B1B68BA
:400A000082204000211C984705E0074B1B680620FF30211C9847054A137801218B43137000E00025281C38BD58230020842300207047C046014B18607047C0465C100020D6
:400A400000B585B00F236B4400221A70103269460A81009301238B8068460021002200230FF01AF905B000BD10B582B0154B1B68002B24D08389102B21D10389012B1ED150
:400A800043681B78022B1AD8041C04300021221C40230FF001F9002811D123886A46138000239370201D0190064B1B68D820400069469847044A137801218B43137002B046
:400AC00010BDC0465C1000208423002000B585B0002A10D0002810D1012910D101A81023038181800192002100220FF09FF8002807D0012006E0012004E0012002E00120CC
:400B000000E0002005B000BD08B50378042B05D1034B1B78052B01D1FFF73CFF08BDC0467A23002008B5034B00225A701A70FFF787FF08BD8023002010B582B0041CFFF7D8
:400B40004BFF0A4B1B78DB070ED4002809D001A912238B70A3890B80C87020680EF0ACFA02E020680EF02AFB02B010BD842300208379002B07D000200BE0C25C002A07D18D
:400B80000133DBB200E00023052BF6D9002000E001207047F0B583B0051C0C1C934A117801230B4313704E2800D90DE18300904AD3589F4601AE0727377000237370301C9E
:400BC00003F03AFA377001237370301C03F034FA884B1E68301CFFF7CBFF00280CD0301C01F0D8FA834E30680021FFF799FE30680121FFF795FE25E07F4B1B787F4A12782C
:400C00003F210A4092010B4013437D4A127820390A40120313437B4A127860310A4052041343794E33701A0A72701B0CB370301C01F0B0FA301C0021FFF772FE301C0121BF
:400C4000FFF76EFE03200CF07FFF01A83F230370002343700CF096FF06226C4B1A70B3E0201CFFF751FFAFE02278694B1A70ABE02378002B00D0A7E06378002B06D1654B76
:400C80000022DA809A80644A1A606360574A137801218B43137097E0544B1B789B0600D592E05E4B1B78102B02D105225B4BDA705B4F3878594E311C0DF0A2F84B4A11781F
:400CC00001230B4313703878311C0CF0EBFC7BE0544B1B88002B01D009F040FF02224B4B1A7071E00622494B1A706DE0474B1B78022B69D03D4A1278D20765D53B4A127868
:400D0000520708D50322414B1A70384A137804218B43137058E0354A1278120708D506223A4B1A70314A137808218B4313704BE0032B49D10622354B1A7045E0334B1B78F6
:400D4000022B41D0294A1278D2073DD5274A1278520707D504212D4B1970244A13788B43137031E0214A1278120708D50622274B1A701E4A137808218B43137024E0042BED
:400D800022D10622214B1A701EE02548211C022200F0BBFD00221E4B1A7015E0FFF7C2FE12E06188162900D9172120880EF08EF90AE0201CFFF7C0FE06E00C4B1B78DB070A
:400DC00002D5201CFFF750FE084B1A7811231A4209D0064A137801218B431370124B1B68281C211C984703B0F0BDC0468423002098520100200C00207CF1FF0F7DF1FF0F65
:400E00007BF1FF0F78F1FF0F240C00207A2300207C23002060100020A80B00208C0C002080230020762300205823002004490A68FB231A408000F73B184010430860704710
:400E40000001044004490A68F7231A40C000EF3B184010430860704700010440014B18707047C04673000F40034A1068802318401060C009C0B2704710020440014B9864EE
:400E80007047C0460000002010B5041C00F0ADF8044A1168044B0B40A4051C43146000F0A8F810BD00E400E0FFFF3FFF0422014B1A60704700E100E00422014B1A6070479A
:400EC00080E100E010B5041CFFF7F6FF201CFFF7D5FF0320FFF7D8FFFFF7E8FF10BDC0467222074B1A70523A064B1A701A3A064B1A704132054B1A700022054B1A70704735
:400F000081000F4080000F4023000F4033000F4082000F4010B500F068F8041C0B4A117820230B4313700A490A7810231A43D2B20A70084A11780B43DBB21370FF2000F07B
:400F40003BF8201C00F055F810BDC04691000F4090000F4092000F4008B5064B1B78002B04D1FFF7BDFF0122024B1A70FFF7D2FF08BDC04668100020034B1B785B07FBD4C9
:400F8000024B18707047C04662000F4042000F4038B5084B1B78002B05D109E0FFF7ECFF0134A4B201E0051C0024285D0028F5D138BDC04668100020044B1B68002BFBDB35
:400FC0000002034B1843014B186070470000014040000080000000000230800803D00138FDD1C046C046C0467047EFF3108072B6704780F31088704710B586B0041CFFF749
:40100000F4FF0E4B1B6800930D4B1B680193033C0C4B1B5D02930C4B1B68039304AA0B4B04936B4605930A4B1A600A490A4A11601B68FFF7DEFF06B010BDC04608010B40CE
:4010400000010B40D453010030001040B6EA0000080010401700008004001040024B1B68012018407047C0460C002E401F2318401E3B8340181C014B1860704700E100E0F3
:4010800001BE704738B5041C0D1C1F2802D90020FFF7F6FFA400034B9C4664442068256038BDC0464000002010B5041C06E0084B1868FFF791FF074B9C46644480231B02B3
:4010C0009C42F4D8024B58686043FFF785FF10BD940C00200080FFFF08B5034B1B7A5843FFF77AFF08BDC046940C002010B5041C0F4A116801230B4313600E4A0E4B1A6015
:401100000E4A1368802109020B431360002809D100200CE00120FFF7DFFFFFF79FFF002804D1013C002CF5D1102000E0002010BD60F02E400220000078002E4010002E406B
:40114000034B1868C0231B02184000D00120704700010B4010B50D4B1A6801218A431A601A68022082431A60094A10683024A043203C204310601068093CA04301431160E4
:401180001A68802109060A431A6010BD00F02E4000FF2E4038B51D4B1B6801241C40002802D0012816D02BE0184B19680122914319601968022081431960154B19682E30BE
:4011C00081432038014319601968093881430A431A6018E00D4B1A6802218A431A600C4A10680725A84301431160116830208143103801431160196801220A431A6002E01C
:401200000020FFF73DFF201C38BDC04600F02E4000FF2E4008B5FFF7E8FE044A1368C02109020B431360FFF7E4FE08BD00010B4010B5FFF7DAFE08490A68084B1A408024BB
:40124000E40122430A600A6813408022120213430B60FFF7CEFE10BD00010B40FF3FFFFF70B5061CFFF7C1FE041CFFF769FF002803D0FFF7DDFF012500E000250848331C56
:401280000340084A106808490840184310601368012D01D1FFF7BEFF201CFFF7AAFE70BD0404040010020B40FBFBFBFF10B5244B1B685B0715D5234B5B685B070ED5224B49
:4012C000596A042001401F4C62688A4362605A6A82435A629B69002B00D098470420FFF7BFFF174B1B685B0518D5164B5B685B0510D5154B596A8022D20011401148426881
:401300008A434260596A114A0A405A62DB69002B00D098478020C000FFF7A2FF084B1B685B030CD5074B5B685B0304D5064B1B6A002B00D098478020C002FFF791FF10BD3F
:4013400010020B40A40C00206C100020FFFBFFFF0160704701607047324B1A781202324B1B781A43314B1B781B02314909780B4330498B4201D1072A06D0D42109018B428C
:4013800006D1042A04D102E02B4B042200E02A4B2A490B602A4B1A602A4B1B781B022A4A1278134380229201934202D0002B02D002E0264B00E0254B254A1360254B1B78D9
:4013C0001B02254A12781343244A934205D0244A934204D0052B05D103E0224B02E0214B00E0204B204A1360204B1B681B09204A1268AA2A15D1012B13D9164B1B780E2B91
:401400000FD11C4B1B781B021B4A127813431B4A13601B4B1B781B021A4A127813431A4A13607047D9F0FF0FD8F0FF0FDFF0FF0FDEF0FF0F580B0000580D00006C002E40A8
:4014400074002E40DBF0FF0FDAF0FF0F0220000078002E40DDF0FF0FDCF0FF0F0F0F000005050000050F000080002E40EC0F00F0E00F00F06DF2FF0F6CF2FF0F84002E405D
:401480006FF2FF0F6EF2FF0F94002E4008B5FFF723FE08BD08B500F04BF808BD08B500F04FF808BD08B500F04BF8034800F02AF8032000F02DF808BD8915000008B5024857
:4014C00000F046F808BDC046891500000220FF307047C0462B2070472B2070472B2070472B2070472B2070472B2070472B2070472B2070472B2070472B2070472B20704731
:401500007047C046014B18677047C0460000002010B5041CFFF769FD044A1368C0218B43A4011C431460FFF764FD10BD0CE400E080225201014B1A607047C04600E100E0E8
:4015400080225201014B1A607047C04680E100E010B5041CFFF7F4FF201CFFF7D3FF0320FFF7D6FFFFF7E4FF10BDC04608B5FFF73CFD044A136804218B43136030BFFFF746
:4015800038FD08BD10ED00E008B513F0D9FB08BD002243088B4274D303098B425FD3030A8B4244D3030B8B4228D3030C8B420DD3FF22090212BA030C8B4202D31212090214
:4015C00065D0030B8B4219D300E0090AC30B8B4201D3CB03C01A5241830B8B4201D38B03C01A5241430B8B4201D34B03C01A5241030B8B4201D30B03C01A5241C30A8B42BA
:4016000001D3CB02C01A5241830A8B4201D38B02C01A5241430A8B4201D34B02C01A5241030A8B4201D30B02C01A5241CDD2C3098B4201D3CB01C01A524183098B4201D332
:401640008B01C01A524143098B4201D34B01C01A524103098B4201D30B01C01A5241C3088B4201D3CB00C01A524183088B4201D38B00C01A524143088B4201D34B00C01ACC
:401680005241411A00D20146524110467047FFE701B5002000F0FCF802BDC0460029F7D003B5FFF775FF0EBC4243891A1847C04603460B437FD4002243088B4274D303093E
:4016C0008B425FD3030A8B4244D3030B8B4228D3030C8B420DD3FF22090212BA030C8B4202D31212090265D0030B8B4219D300E0090AC30B8B4201D3CB03C01A5241830B69
:401700008B4201D38B03C01A5241430B8B4201D34B03C01A5241030B8B4201D30B03C01A5241C30A8B4201D3CB02C01A5241830A8B4201D38B02C01A5241430A8B4201D37B
:401740004B02C01A5241030A8B4201D30B02C01A5241CDD2C3098B4201D3CB01C01A524183098B4201D38B01C01A524143098B4201D34B01C01A524103098B4201D30B01BD
:40178000C01A5241C3088B4201D3CB00C01A524183088B4201D38B00C01A524143088B4201D34B00C01A5241411A00D201465241104670475DE0CA0F00D04942031000D3E5
:4017C0004042534000229C4603098B422DD3030A8B4212D3FC22890112BA030A8B420CD3890192118B4208D3890192118B4204D389013AD0921100E08909C3098B4201D34F
:40180000CB01C01A524183098B4201D38B01C01A524143098B4201D34B01C01A524103098B4201D30B01C01A5241C3088B4201D3CB00C01A524183088B4201D38B00C01A48
:401840005241D9D243088B4201D34B00C01A5241411A00D20146634652415B10104601D34042002B00D54942704763465B1000D3404201B5002000F00BF802BD0029F8D09B
:4018800003B5FFF715FF0EBC4243891A1847C0467047C046014B18687047C046101000200E4B70B500251E1C0D4CE41AA410A54204D0AB00F35898470135F8E713F0BEFD3E
:4018C000084B00251E1C084CE41AA410A54204D0AB00F35898470135F8E770BD4854010048540100485401005054010030B50024944208D0035D651C0C5DA34201D0181BF8
:4019000002E02C1CF4E7002030BD002310B5934203D0CC5CC4540133F9E710BD031C8218934202D019700133FAE770470EB410B59DB002A9029008610B488224886048612B
:40194000012040421FABC881084804CBA400006801938C8100F06CF80023029A13701DB010BC08BC03B01847FFFFFF7F10100020F0B58E6885B0071C0C1C03920193B342EB
:4019800045D390238A89DB001A423DD003250969236801985B1A029363695D43EB0F5D19029B6D1001331B189D4200D21D1C381C53050FD5291C00F01DFB061E13D0029A76
:4019C0002169FFF7A2FFA289184B134080221343A38111E02A1C00F065FB061E0CD1381C216900F0C1FA0C23402201203B60A38940421343A38117E0029B2661F618266094
:401A00006561019EED1AA560019BB34200D2019E321C2068039900F092FA0020A3689B1BA36023689E19266005B0F0BD7FFBFFFFF0B59FB0029005938B890E1C171C1B060F
:401A400010D50B69002B0DD1402100F0D3FA30603061002804D10C23029A01381360D0E040237361002306AD6B6120336B761033AB763C1C2378002B03D1E31B049312D0C7
:401A800003E0252BF9D00134F4E7049B0298311C3A1CFFF76DFF431C00D1ACE06A69049B944663446B612378002B00D1A3E00122002352426A6002A95432521801342B6048
:401AC000EB60AB601370AB654F4F2178381C052200F02AFA002808D0C01B01278740381C2B68013418432860EEE72B68DA0604D55322202102A8121811701A0704D55322D3
:401B00002B2102A81218117022782A2A01D0099B0EE0059A111D12680591002A01DB099204E05242EA60022213432B60013409E02278303A092A04D80A214B4301349B189C
:401B4000F6E7099323782E2B18D163782A2B09D1059B02341A1D1B680592002B0DDA01235B420AE0002301342278303A092A04D80A214B4301349B18F6E70793234F217893
:401B8000381C032200F0D0F9002807D0C01B40278740381C2B6801341843286021781C480622671C297600F0BFF9002812D0194B002B06D10722059B0733934308330593E1
:401BC00014E005AB00930298291C321C124B00E000BF07E005AB00930298291C321C0E4B00F08AF80390039B013304D06B69039A9B186B613DE7B3890B985B0601D50120DF
:401C000040421FB0F0BDC046065401000C540100105401000000000071190000F7B5171C01930A698B6800900C1C934200DA131C221C3B6043321278002A01D001333B60E4
:401C400023689B0602D53B6802333B60062523681D401ED0231C43331B785A1E9341226892061CD53020E1184031C870211C5A1C45310978A21840320233D1700FE0221CDB
:401C80000123009801991932089EB047431C0ED00135E3683A689B1A9D42F0DBDAE7221C009801994332089DA847431C02D10120404220E006232068E1683A680340002514
:401CC000042B03D18D1AEB43DB171D40A3682269934201DD9B1AED180027AF420ADA221C0123009801991A32089EB047431CDED00137F2E70020FEBDF0B58BB006920A1CAA
:401D000043320793059004920A7E0C1C109B6E2A00D1A8E011D8632A22D009D8002A00D1B2E0582A00D0C2E045310A707C4A4FE0642A1DD0692A1BD0B9E0732A00D1A7E0E7
:401D400009D86F2A29D0702A00D0B0E0202209680A43226037E0752A1FD0782A33D0A6E00E1C1A684236111D196013683370A1E021681A68080606D4490604D5111D196078
:401D80000023D55E02E0111D19601568002D3BDA2D23049A6D42137036E021681A68080606D4490604D51568111D1960ADB202E0111D196015685A4B227E03930A276F2A06
:401DC0001DD108271BE0221C782145321170554A19680392081D226818600D68100602D4500600D5ADB2D30702D520231A4322601027002D03D1202322689A432260231CBF
:401E0000002243331A7002E00A27454B03936368A360002B03DB0422216891432160002D02D1049E002B0ED0049E281C391CFFF735FC039B013E5B5C281C3370391CFFF799
:401E4000A7FB051EF1D1082F09D12368DB0706D563682269934202DC3023013E3370049B9B1B23612BE009681A68080607D4490605D5111D19601368A28A1A8004E0111D61
:401E80001960136862691A600023049E236116E01A68111D196016680021301C626800F043F8002801D0801B6060636803E0261C42363270012323610023049A1370079BB5
:401EC00005980093211C069B09AAFFF7A7FE431C02D10120404221E0236905980699321C079DA847431CF4D023689B0705D4099BE068984212DA181C10E00025E368099AF5
:401F00009B1A9D42F3DA221C0123059806991932079EB047431CDCD00135EFE70BB0F0BD1754010028540100C9B28218904204D003788B4202D00130F8E70020704710B5D2
:401F4000814208D28B18984205D29B1A013A09D3995C8154FAE70023934203D0CC5CC4540133F9E710BD000030B500293ED004390B68002B00DAC9181D4A1368141C002B1E
:401F800002D14B60116031E099420DD208680A189A4203D11368C3180B6053684B60216024E08A4203D8131C5A68002AF9D11D685C198C420BD1096869185818196090429C
:401FC00014D110685268091819605A600EE08C4202D90C23036009E008680C18944203D114685268001908604A60596030BDC04608220020032370B5CC1C9C430834051C60
:402000000C2C01D20C2405E0002C03DA0C2300202B6042E08C42F9D3204A1368101C191C002913D00A68121B0DD40B2A02D90A608B181FE08B4202D15A6802601BE04A6882
:402040005A600B1C17E00B1C4968E9E7144E3368002B03D1281C00F04BF83060281C211C00F046F8031C421CD0D00322C61C964386420AD11C60181C07210B301A1D884379
:40208000821A0AD05142995007E0311A281C00F02FF8431CBAD0331CECE770BD0822002004220020F8B5061C0C1C151C002904D1111CFFF79FFF041C18E0002A03D1FFF7E6
:4020C00053FF2C1C12E000F025F8A8420ED2301C291CFFF78FFF071E07D0211C2A1CFFF714FC301C211CFFF73FFF3C1C201CF8BD38B50023064C051C081C2360FEF79CFA28
:40210000431C03D12368002B00D02B6038BDC046882300200B1F1A68101F002A04DA891804390B68D018043870470000134A1088810703D08107890F401A001D11791030D5
:40214000484381B25088820703D08207920F801A001D800040180A494030098980B2CA0701D0503080B2890706D504495422091F09785143081880B270470000B20C002087
:402180009410002010B501F0ABFE10BD10B500F04FFA10BD10B50749044609780220002907D1204601F0ECFE002802D120460BF0C1FD10BD2A0E002070B504460120002C25
:4021C00012D02368002B0FD0616800290CD0074D06222889208118462968FFF796FB6968606809780170002070BD000094100020FFB585B0002768460E9D07734C481C46E1
:402200000078002802D0082009B0F0BD10990F9801900095029105A807C800F0FBF80028F2D16946264603AB84460873002C19D0002115E08A00B75A082F09D990198078BD
:40224000002805D0083FB7521878401C187005E0002915D00027B75290198770491CC9B2A942E7D360460028CED10F9800280AD0109901F0E9F90006000E04D00120C3E710
:4022800001208446EEE701F02BFE2948002101610C300599016021888180022D03D3A1798171A17AC17100211EE0481C19E082008B00A75AE65ABE46BE4211D26F463E80E9
:4022C000B4461E190296B678BE7001967646E6521719029EBB78B3706646A652019EBE70401CA842E3D3491CA942DED3114800906846037B22460799069800F013F90028BB
:4023000082D168460A4C007B60700A4801F018FE0028B4D1204607490C3008F0D5FB0028ADD108F0EFFB0028A9D1012121706BE7AC0C002094100020F8B5054633480E46A9
:402340000078002802D002242046F8BD002E5BD000242F49002D16D02A89D0070DD02868002808D003881B3BE12B04D24088FB2801D81B2801D2012409E0900707D56868BD
:40238000002804D1F7E70020088108604860002CDAD11F482F8907811C481B21801D018041800421017119490020891C0870F80705D016480622801D2968FFF7A6FA1449DB
:4023C000B80703D56A681148127882700F480D46801D0860001F486001F0F8FD0B48801D01F0E6FD28890EF0E7FD28890EF066FF03461033FFF79AFE1F21C01889014018C4
:402400000249308088809FE701249DE7AC0C002094100020FFB58446384F1C460020BB883F78054602460646002F11D100290ED0029999420BD36146002908D0002C06D058
:402440000A99002906D02E4B0B99994202D2012004B0F0BD002144E0AB001F19BF78002F3BD0E35A002B38D07B43591889B22B0000F04AF8050410161C253100A778238831
:40248000BC46FF27233BEB37BB4222D26346032B1FD322E0A388002B1FD0302B19D31CE02389002B19D0282B13D316E0A289002A13D01346134F233BBB420AD20DE0268A7A
:4024C000002A0AD033460F4F233BBB4201D2964203D901200EE0002001E000280AD16D1CEDB2099B9D42B7D31C2463435B1802998B42ACD89642AAD8AAE70000AC0C0020CF
:4025000079020000BAFF000030B47446641E2578641CAB4200D21D46635D5B00E31830BC18470000FFB583B0002469460C801F4606468C80002806D00598002803D0049872
:402540003043800701D0012467E0002FFBD03449049809888842F6D3FEF7B0FFFEF79EFF00F010FC002856D100F06CFD002852D12C49084601F09CF805042D0C4BD12A48B0
:402580000499066081800021C18007810C98007AC00704D0684601F0BCFC040007D10C98007A800703D501A801F0BCFC0446BF1DFEB2002C21D13146059800F05DF8040021
:4025C0001BD10EF089FE0406240E16D16A461088928808368518144AF1B29088D288AEB29319984207D3401B801A80B201F050FB050007D000E0FF25012400F05BFA002DFD
:4026000004D008E0F8B200F01BF9F6E700F07EFA06490120087000F0C7FB204607B0F0BDB00C002065270000A0100020C00C002010B503480078012801D101F0CBF910BD5E
:40264000C00C002070B5084B0446DA889E8800205518B54206D81D68AA182260DA885118D98070BD032070BDA01000200148008970470000A0100020F0B587B007460D46B3
:4026800000208900009006916846FFF7DBFF844600285DD1304800990160002117E02E4B88001A680629115406D22C4C0419667882185670628805E0C419203CA67A82189E
:4026C000567022891B68C018491C4280C9B2A942E5D300242DE0601CC2B2059025E01E4FA30039689600581840887118039604904E88B04217D938466F46FE80B6464F78AD
:402700006E4677710297049F4F800168039F5E18767879184E700168764659184E800068029F18184770521CD2B2AA42D7D30598C4B2AC42CFD36046002809D168460699C0
:40274000FFF780FF8446002802D1054900980860604607B0F0BD0000C40C002070540100C80C00207047000010B5002809D005494A68002A05D0011F08788000105801F029
:4027800035FA10BDC40C002010B50446FFF76EFFC0B2801DA0420CD307484068002808D0A100405801F094F9002801D00470001D10BD002010BD0000C40C0020F8B5164600
:4027C0000D460446FFF752FFC0B2801DA04203D20020C0430090F8BDB2B2E9B2684601F09DF90099481C03D0024AA000526811500098F8BDC40C0020F8B50746FFF736FF5A
:40280000801DC6B20A49002005460C680DE06178002907D06188B94202D32078FFF7B4FF002804D1241D6D1CEDB2B542EFD3F8BDC40C002010B5002801D0FFF795FF10BDB8
:4028400070B506460948002504680BE06178002905D062882078121D0023FFF7AFFF241D6D1CEDB2B542F1D370BD0000C40C0020FFB581B00A9C16002BD000F0F1F80546CA
:40288000042826D0214F002C0BD02046FFF7B4FF2901C919486000281BD022460499FFF734F81A4928010E5046187481019805707D20029CC000444300F0C0F80090042851
:4028C0000AD000F055FAA0420ED800F051FA201A06E0FF2005B0F0BD204600F0ADFA0020B08135720020F5E700F042FA074600F0B9FA381B87B23846012100F0EFF8009873
:402900000101024808188781E6E70000AC100020F8B5060117483418217A042903D0A089002802D018E00020F8BD00F021FA054600F098FA00F0A2F804280DD001010D48CE
:402940000F18B88941198DB2002100F0C7F80020B881284600F070FA6068064D002801D0FFF768FF042020720020A8516081A081D9E70000AC100020FEB500266A46304688
:4029800001232549050169180D7A042D02D0898900291BD000211154401CC0B20428F0D300246846005D002830D01B4821010818418947680568029100210160416004224D
:4029C000418102728181002E02D015E01354E3E700F054F804280ED001010F480818019086890021304600F079F8019800218181304600F021FA0126002D07D038460299A1
:402A0000A847002F02D03846FFF714FF641CE4B2042CC6D3FEBD0000AC1000200EB5002005216A460090118150810348694600680FF0DBFA0EBD0000CC0C0020074A002093
:402A4000010189180B7A042B02D08989002903D0401CC0B20428F3D370470000AC1000200549002002015218127A042A03D0401CC0B20428F6D37047AC10002030B50A4BD4
:402A800004200A4C00210A011219157A042D06D09289002A03D09A4201D808461346491CC9B20429EFD330BDFFFF0000AC1000207047000030B50020074C05460423020121
:402AC00011190B72A5504D60401C4D81C0B28D810428F4D330BD0000AC10002030B5094C00231A011219157A042D04D09589002906D02D1895815B1CDBB2042BF1D330BD94
:402B00002D1AF7E7AC100020002070471CB5002469460C70142001902346054A05480FF069FA04480068401C00D1FF2420461CBD892B0000CC0C00203EB5124A0146FF20CD
:402B400000230124126800290DD0012914D0042908D104206946009308814B8110460FF044FA80B23EBD6846009304814381694610460FF035FAF4E76846009304814381DC
:402B80006946EBE7CC0C002070B545890468416800890300FFF7B8FC08280509091E22282628002006F002FD1EE0022908D0C8B22A4621460DF0E8FA2046FFF73BFE13E093
:402BC00002202A4621460DF0DFFA2946204600F00DF809E000200EF0F7FE05E02046FFF7CBFE01E0FEF78CFC002070BD014B0022DB681847D00C002070B544890568008997
:402C0000022803D0032809D0FF2070BD2246094C0023A46829460120A04708E0FFF7B2FA241DA2B200232946022007F0FEFD002070BD0000D00C00207047000002480021B4
:402C40004160018041807047D00C002070B50C46002186B016460391012802D0022859D116E003A9012007F040FE01281BD1039D324621462846FEF748FE009528780190B6
:402C80000220694608814E816846FFF7B5FF41E0214D002B686809D0049004A9022007F024FE01281DD0022006B070BD002812D0298840182146FEF728FE28880024801997
:402CC00080B228806988091D884206D12C801348FFF792FF03E00320E6E788421AD96C6018E004986860E278A378110219430B4A698000231060E3565360032313815181CF
:402D0000A1788170E178C1706178417021780170042028800020C7E7D00C0020EC1000203EB515460C46022803D004280CD000203EBD0091019002206946088107484A8163
:402D400000680FF052F907E00DF01EFA044B0022DB6829462046984701203EBDCC0C0020D00C0020014AD16090607047D00C0020034801688068081A0A21484300097047DA
:402D8000F810002010B5FEF78DFB482204490548FEF7BBFD03490120C870002010BD00008C540100FC14002010B5FEF773FB10BD70B5134C2368002B08D0207B1149C20790
:402DC00005D04008400020738868A08070BD88680B4AA18880B29268814203D90A4D691A091802E0814202D2411A5118A160A080A0689842EAD30FF015F900F013F870BD40
:402E0000F8100020C0102E40FFFF000010B508461946FFF7A7FF10BD704710B5FFF780FF10BD000003480021016041608160C16070470000F8100020024610B5FF20002AF0
:402E40000CD0FFF7EFFF064C0321207B0843207310010A21FEF722FC2060002010BD0000F810002000B504480A21806848430209FFF7D8FF104600BDF81000200248007B48
:402E80008007C00F70470000F810002010B544490868002802DA434B01221A70022290430860414800693E49C00B4031096A08425ED0012000F086FA3B483C497C30FEF7A3
:402EC00049FA37480E216C30FEF744FA364820218430FEF73FFA344814219C30FEF73AFA3148FF21C131A430FEF734FA2E48FF212F31B030FEF72EFA2B482D49BC30FEF78C
:402F000029FA29482B49AC30FEF724FA29492648491CB430FEF71EFA23482749B830FEF719FA21482549CC30FEF714FA1E4824490830FEF70FFA1C482249A830FEF70AFA1A
:402F4000194821498830FEF705FA17481F498C30FEF700FA14481921C9029030FEF7FAF9FEF7FAF9FEF7B2FAC0B2022802D00FE0FF2010BD16491748FEF7ECF91548164939
:402F8000001DFEF7E7F9134800210830FEF7E2F954200449C043891C0870002010BD000000F02E40E00C002000002E4055650000320300002F3F0000310200001052000003
:402FC000EC160000FA12000031D000003AE300009956000080012E40F80F000070B50646581C80B245086D00002408E0304600F0C1F81055000A1119A41C4870A4B2AC426F
:40300000F4D3D80705D0D0182038D15CC47FD454C17770BD30B50A4C002100195B1E07E0541864782502545C2C430480891C89B29942F5DB994201D1515C018030BD00009E
:4030400000102E4010B5FF2000F0BCF90F49FF2048700E481021801D41800121417001700A490020C91C4870FFF710FF04000AD100F008F907210648FEF76AF904480721CA
:403080001830FEF765F9204610BD0000E00C0020CC112E4070B5002405465B1E0AE0284600F068F8010A161971702D1D1055A41CADB2A4B29C42F2DB9C4203D1284600F03C
:4030C00059F8105570BD000070B500210A4D5B1E0AE0541864782602545C344346193480001D891C80B289B29942F2DB994202D1515C4019018070BD00102E40F0B5059949
:40310000091FCFB200217E1E0BE0541864782502545C2C43164D45192C80001D891C80B289B2B142F1DBFC0712D01C78515C24020F4A0C4381180C809C785D78001D210213
:4031400080B2294384182180001D80B2D9780CE059781A7809021143054A84182180001DD9789B78090280B2194380180180F0BD00102E40014940180088704700102E40DD
:4031800010B50B490020487000F07CF8002000F03FF9002000F02CF907210648FEF7D8F8044807211830FEF7D3F8002010BD0000E30C0020CC112E4010B50B46062812D019
:4031C00006DC01280CD0032801D1FFF7D9FF10BD0A28FCD00B28FAD105480078107010BDFFF730FF10BD1146184600F02DF910BDE60C0020F8B5204DAC6A0127A0071F4E3A
:40320000002816DA307806280ED1286A384328621B480069F903084381B219481030FEF799F8042000F0CEF8134802212830FEF78FF8E00711D0062000F0C4F80F49FF2080
:40324000C91E48707078002802D1686B38436863094801212830FEF77BF8E0050BD53078042802D1052000F0ADF80348FF2101312830FEF76DF8F8BD40F02E40E30C0020A9
:4032800000002E4010B503212348FEF763F80120FEF7FCF820483038406A204C80076178800F890001431C480C38FEF753F86078002808D0401E022181401820FEF7DEFA49
:4032C000C000083800E0B82081B21548FEF742F81348032109021438FEF73CF810481149B830FEF737F8612189010F48FEF732F80D480321001FFEF72DF80C490C48FEF7C8
:4033000029F80B480B496038FEF724F8084801218838FEF71FF810BD70F02E40E60C0020D8102E4090890000041E2E40FF0F000058122E40209000000849087806280BD1C1
:4033400048780749002803D1486B400840004863C86A01221043C86270470000E30C002040F02E400148007870470000E30C002000B50300FFF7C8F8080D050D0B070507EB
:40338000090D012000BD032000BD042000BD022000BDFF2000BD0000074A9168D26889B2064B92B2994204D105498A4201D1012100E000210170704780002E4033D0000071
:4033C0003FE3000010B50446FEF768F8072C01D9FF2C01D102480470FEF75CF810BD0000E30C00200149487070470000E00C002010B5064A012805D01921C9021046FDF733
:40340000A9FF10BD1D21C902F8E7000090002E4010B50A4A141D012808D009491046FDF799FF08492046FDF795FF10BD04491046891CFDF78FFF0349491DF3E788002E405A
:4034400031D000003AE3000070B50C460546FEF73DF8C0B202280E49287804D0FF2810D04C280CD810E0FF2809D10A4AD0680004800F032801D0087807E09069000A553879
:4034800003E00878207070BD4F382070087070BDE20C002000002E40F0B50122002830D000292ED00424420600D00524792342065B06D21800D0641C034600221EE00C251B
:4034C00016466E43104D00277519AF720E4F002ABB51696007D0661EB24209D10B4E86197606760E05E05E06760E8027BE1B00E080269B198919521C2E81D2B2A242DED3B0
:4035000000221046F0BD00008413002079020000074900200C2242435218927A012A05D0401CC0B20628F5D3002070470120704784130020F8B50F000446164609D0184DD1
:4035400018496868A04202D94018A04201D38E4201D90120F8BD39462046FEF7C7F900281BD0324639462046FEF7CFF9F0B200210C224A43521913895668F718A74208D9EC
:403580000127A41B1B1B9772834206DAC01A1469C0B2491CC9B20629EAD30020F8BD0000841300207902000010B500F05DF80748054AC16806480C46FEF7A7F904492046EB
:4035C000FFF76AFF10BD000079020000EC0C002008110020002070470020054A002902D0012902D002E0506000E0906000207047EC0C002070B5084C154608460549A268CB
:4036000089182A46FEF781F9A0684019A06028B270BD000008110020EC0C00203EB50A226946FFF7E7FF044606480A2200686946FEF75CF9002802D00020C0433EBD204604
:403640003EBD0000EC0C0020002802D0044A914201D2FF20704703490A61C8600020704779020000EC0C0020024800214160816070470000EC0C002070B5074C154605484E
:40368000626880182A46FFF755FF60684019606028B270BD08110020EC0C002010B503490A220968FFF7E8FF10BD0000EC0C002010B50F4A002313600E4A13600E4B1860F5
:4036C0000E4801600E49012008600E490860000290600E490C4808600D4914300860FF381538506000F0BCF800F0CAF9002010BD180D0020000D00202C0D0020300D0020CD
:403700001C0D00200C0D0020CC140020100D0020240D0020014610B50020002910D0094B1A689C685118A14209D25868196080188A0704D08A07920F891A091D196010BDCC
:40374000002010BD000D0020F8B50024164E671E321F3D463168136806E01422624310328A58521C1BD0641C9C42F6D36A1C14D02C461422544322460C3288500C21484349
:40378000FFF7C8FF3168002808510AD031680020103408517068401C70602846F8BD2546E4E73846F8BD0000100D0020F3B50026F64381B000281BDB1E490968884217D84E
:4037C0000299002914D01B4F142204463F1D54432546396810354859401C09D0FDF75EFE38682F1F4159C359994203DBFDF752FE3046FEBD214608310091465801590C20A6
:40380000704308180C220299FEF77FF80948761C001D0068C159B14200D100260549009A091D865008684159491C4151FDF732FE0020FEBD0C0D0020002803DB0749096830
:40384000884202D90020C043704704491422091D0968504310300858704700000C0D0020F0B500200D4A451E0346171F50600FE014260146714314680E1DA3510C4616684F
:40388000083433511668083435511468401C635039688842ECD30020F0BD0000100D0020F3B50026F64381B0002841DB2349096888423DD8029900293AD0204F1422044654
:4038C0003F1D54432546396810354859401C2FD0FDF7E4FD3868415900292BD0211D009146580C21005971430F46C1190C220298FEF70BF811480021001D0068761C0059D5
:403900000C34C0190160416081600C48001D00680159B14200D100260849009A091D865008684159491E4151FDF7B4FD0020FEBD3046FEBDFDF7AEFDFAE700000C0D00201A
:40394000FEB504460D4600201E49089E0860471E009001900290002C11D0486885420ED2002A0CD0002E0AD0642E08D808460C3001681C2068430C18207A002801D0384657
:40398000FEBD0120226020721846FFF7DDFE6060401C13D06681A6810A4827610C3067610179A94200D205710021684601810A462846029B00F040F82846FEBD00202072A1
:4039C000DDE70000180D002038B50124009400F039F838BDFEB50027164EFF433D4600240EE01C20316860430818017A002906D04068FFF721FF002801D0254603E0641C56
:403A00003079A042EDDA681C12D01C2130684D434419FDF743FD69466068FFF741FF0546FDF738FD002DD9D1216868468847D5E7FEBD0000240D002038B50024009400F07D
:403A400001F838BD1FB500220C49541E0A60002811DB496888420ED808491C220C31096850430818406801A9FFF7A0FE401C02D0002004B010BD2046FBE70000180D00208A
:403A8000F0B50021114A4D1E174611710C3F0B46BD6016E008461C2460431668041D355114680646235014680836A3551468361DA353044616680A34335318301468491C2F
:403AC000255078688142E5D30020F0BD240D002038B500210091002811DB0F49097888420DDA0D4D04010C3529680859002807D0201D0818694600F06FF9002801D000208D
:403B000038BDFDF7CBFC28680F34015D491E0155FDF7C0FC009838BD340D0020F7B582B0002502986E1E06602E48D21C024017462D4A2C4610460C380178106805E023013A
:403B4000C358002B0FD0641CE4B28C42F7D3711C28D03401211D40180191039900F02AF900281FD101E02646F1E71F48016820460C300F521C480399026820460E3011545E
:403B800019480399026820460F3011540398784300F0A0F8144900280968085102D00024009011E001251AE00F48016801980818009900F02CF9002801D0012502E0009810
:403BC000C0190090641CE4B203988442ECD3002D05D10298066004480179491C0171284605B0F0BDFCFF0000400D0020F8B50D4600216A468C461180002839DB23490978F1
:403C0000884235DA214B04010C3319680A59002A2ED020460C300B5A801C0E5C184670438018954224D3854222D2002006E007465F43BF18AF4206D0401CC0B2B042F6D394
:403C40006046002814D0114E271DC8190C366A46294600F006F900280AD168460088012808D030682946C01900F0D1F8002803D00120F8BD0020F8BDFDF710FC30680F346A
:403C8000015D491C0155FDF705FCF3E7340D0020F8B50F46002400F031F8002817D10C4900220B460C334A600EE021011D680E466A501D680C36AA53B61C1D680F31AA55BE
:403CC0001D68641C6A54E4B2BC42EED31A71F8BD340D002000280BD0C01C074A81085068890053884118994203D89368516018187047002070470000340D0020F8B5064663
:403D000000200F4D009029700C0121466846FEF799FC00280CD129460C3100980860301B001F84B221466846FEF78CFC002801D0FF20F8BD6C800098A8600020F8BD000021
:403D4000340D0020F8B5002827DB19490978884223DA174C05010C342168485900281CD028460C30085A009028460E300E5C401C0E5420682F1DC01900F064F800280CD10C
:403D80002068002445590EE0094829460C300068C01900F03CF8002801D00120F8BD00982D18641CE4B2B442EED30020F8BD0000340D002030B50D4604000BD0A800FFF706
:403DC00089FF6060002805D000202570C0436080002030BD012030BD70B50D46040005D0002D03D00220205E002801DA012070BDFDF754FB0221615E6068890040582860F3
:403E00006088401E6080FDF745FB002070BD70B50D46040007D0002D05D002212078615E401E814201DB012070BDFDF737FB6088401C00B26080616880000D50FDF72AFB06
:403E4000002070BD10B5040009D0227800216068FDF764FD0020C0436080002010BD012010BDF0B500231D46002802D00224045F0AE00120F0BD46689F00F6598E4201D1F9
:403E8000012503E05B1CDBB29C42F4DA15700020F0BD00000148007870470000480D00207CB505460024FEF76DF9A8796946087000A8062229460130FDF727FD0021684670
:403EC00005F03AFE0C2804D0072804D01F2804D004E0022402E0042400E0272420467CBD10B500F047F9FFF73DFAFFF741FA10BD70B504460025FEF745F9002C06D0A0798F
:403F0000012803D8214603F00BF900E00125284670BD01460120002902D05020088000207047000001460120002905D0034854220078504308800020704700004A0D002044
:403F400010B502460D49FE204870032410460EF06FFB002810D10EF013FB00280CD106F021FD002808D100F01BFB002804D106F0C1F8002800D10024204610BD480D00207D
:403F800070B50025044600280ED0A07901280BD8FEF7F8F8A0790028204602D003F09EFC03E003F073FC00E00125284670BD0000014610B50120002904D006220248FDF7E1
:403FC000A4FC002010BD00004C0D002001460120002903D00878024908700020704700004A0D002038B504460120002C20D0617801291DD800290BD0FF25E535FEF7C2F869
:404000000C4828180088C0B22070072803D00EE0FF25CD35F2E70020694608706846FFF7BBF969460878012801D108202070002038BD000000102E40F8B504460120002C1B
:4040400026D06178012902D92278092A20D8002905D0FF25E5352078092803D004E0FF25CD35F8E708202070FEF78CF82078114F114E08280DD00020FFF7CAF97078012867
:40408000207810D00D4969180880FE2070700020F8BD0120FFF7BCF90720B8810549203188800120F2E7B8810248217820308180EBE70000C0112E40480D002000102E4018
:4040C00070B50E46050001D0002400E00C4C002C11D0E28A500609D5D107C90F022003F0EFFCE08A40218843E08204E0D107C90F012003F0E5FC3146284603F035F970BD04
:4041000064150020F8B50546002004460D4E009013E022466946284601F022F80098002801D00EF067FAA878214602F025FFA878214602F013FF641CE4B2308AA042E8D88C
:40414000F8BD00001C160020064A02235188891C89B25180814201D8102900D95380508870470000520D00200148407870470000520D002038B51E4CFFF7F4F8042813D02B
:40418000052811D0062812D003282AD007280AD100206946087002460120FFF70DF8FFF7E1F80128FBD138BD00F0BCFB38BD02F05BFF00F0B7FB02F0D5FF8007800F0228BE
:4041C000F4D10C4841880029F0D05B21095D0029ECD101210170A07D0140022003F070FC38BD02F045FF0120FFF7ECF838BD0000641500205A0D0020F8B50646002403F06F
:40420000CDFC0546304603F0E3FC03460A480021068A0DE001228A401046174628401F40002803D0002F01D1224394B2491CC9B28E42EFD82046F8BD1C1600201CB5002006
:40424000694648706846FFF7CDFE01AA69460A20FEF7B2FF6946042008561CBD10B50C4601F09AFC002809D00179002906D0C1788078224603F026F9002010BD022010BD95
:4042800001480078704700003C1500204030C07E002800D00120704700B500F001F800BD8C2148430749084A40186030417F491CC9B24177D289914201D300214177C8B2CD
:4042C00070470000441500201C16002013B501F063FC04000BD002F0F4F9002807D0214601AA0A310620FEF767FF00201CBD02201CBD000010B50C4601F04EFC00280AD051
:4043000002F0DFF9002806D0224604490A20FEF753FF002010BD022010BD000025150020F3B581B0074601460026029803F02EFC0446002F01D0002500E0154D002D21D040
:40434000284601F05FFC032C04D13946029803F079FC06463846029902F000FE032C06D0002C10D00121384601F03CFE03E03146384603F029FF284602F0C2FC022128462B
:4043800002F0D8FCFEBD3846029902F0E7FDFEBD6415002010B5044604F032FF002801D00C2010BD2078611C03F0A0F9FF2801D01F2010BD03F0E6F9FF280AD02178621C84
:4043C00002F056FD044821780068026B601C904710BD072010BD0000740D002010B504F00FFF002801D00C2010BD03F061F903480068C06A8047002010BD0000740D0020D1
:4044000070B50D46044610210EF034F81021601806460EF02FF8334610221946204604F025FF102130460EF025F802202870204605F0A6FD70BD0000F8B5044640782178CE
:4044400002028006870FE0781143A67809050002090D0643084601F09FFB00210546F2B2002812D0002C10D0022F0ED0032F0CD0002A0AD00279092A07D0002A05D0134AE2
:404480005A23527E1B5C9A4207D82889002105F064FC20460EF0AEF8FF21002914D10C48224600682946436930469847C0B2FF280AD128464030817EF2B2491C8176FF2317
:4044C0002146284600F007F9F8BD0000FC1400208C0D00200020704710B5044604F090FE002801D00C2010BD2078611C03F0FEF8FF2808D003F02AF8044821780068426BF3
:40450000601C904710BD1F2010BD0000740D002010B505F0EFFD00F099F9002010BD000010B504460F4802F0FDF8012817D00D48052221469C30FDF7E8F90A4905229C3171
:404540000846AC38FDF7E1F900F036FF054880222038C17B1143C17300F0B4F910BD3A2010BD00006415002010B5044600786178E2780843A1781143084321790843617965
:40458000084305D004F026FE002803D00C2010BD122010BD204603F0A1F9002010BD000010B5FCF793FF03F01BFB044804F0BEFE02F0D6FF012000F003F810BD0C150020C0
:4045C000F1B586B003A8009005A8019027489F22817A114081726846FDF7EEFD002843D169460989C90705D0214806990068C2686846904769460989890706D5002833D151
:404600001C480068816A0698884700282CD11A4E0025757075737571F575357675767575B570F570B5713746F5730120BC3738731F20F880FF2130467972A030017545757B
:4046400000F0A4FA04F056FB02F01CF800242046069901F0C9FF002803D1641C2406240EF5D0FD72BD72B57307B0F0BDFC1400208C0D0020740D00204415002070B5054645
:404680000E46084603F08AFA0446304603F0A0FA0121A9400A46224001400A4301D0012070BD002070BD10B50446084603F090FA0121A140014201D0012010BD002010BD11
:4046C00010B5FEF74FFE032804D102F0D1FC0120FEF778FE10BDFEB51C4616460F46054602F00EFBA878FFF7D7FD02460190334639460094284600F00DF8002808D1A878BC
:404700000199FFF7DDFCFF2C02D138460DF072FFFEBD0000FFB585B005460E980C46FF2810D02B49C00009680A5840180179C0795278814201D9012601E09006860F6846DE
:40474000038108E06078A1788006860FE0780002014368460181284601F0C8FF070007D021462846079A00F088FC384609B0F0BD304600F08DFD04AE0346039002AA294688
:404780000096204600F04FFB3C20405D002818D0284601F0ABFF012813D0684600890096C0B20190A878231DFF22079902F090FD68460089039BC2B2A878079903F068F9D8
:4047C000D3E7684600890021C0B20091E9E70000880D0020F8B5104F002500242846FFF70BFD060012D00EE03046E040C007C00F07D02146284602F0A9FB21462846FFF74F
:404800008FFD641CE4B2388AA042EDD86D1C2D062D0EE2D0F8BD00001C16002070B50024094D03E0002C01D0002000E028464121095C012901D100F0D6FB641C2406240E70
:40484000F0D000F03FF870BD6415002010B502F087FE0020FFF7B4FE0DF062FF002010BDF8B5002400F0C6F80125012800D1012404F0DCF9012801D102200443104F0020CC
:404880003E4620360423082203E0002801D0002100E031460979002907D001290BD002290BD0114681402143CCB2401C0006000EEBD07C70F8BD2C43F7E71C43F5E700009E
:4048C0004415002070B5144E0024F07BC00921D03546203503E0002C01D0002000E0284601F0FAFE012814D0641C2406240EF2D0F07B4006400EF073002403E0002C01D057
:40490000002000E0284600F06EFB641C2406240EF4D0002070BD00004415002010B5FFF79FFF10BD10B5FCF760FB0446FEF71AFD012809D0FEF716FD022805D0FCF716FEAB
:404940002046FCF756FBEEE72046FCF752FB10BD10B50B4681791943817103D08078114603F04EF810BD10B582798A43827102D1807803F059F810BD30B50C4C0220A28AD8
:404980000B4B9978002901D0022906D11D785B78EB18282B01D9032002E0032900D101205105490DC0020143A18230BDC0112E40560D002000B500F023F8002807D001286D
:4049C00005D0032801D0042801D0002000BD012000BD014600B50020C90701D000F00AF800BD014600B50020C90701D000F002F800BD000001480088000A704720102E402E
:404A00000448008B410501D5042070474007800F7047000000102E4038B50446000610D5FFF7EEFF01280CD1684602F031FB6846007800F026FB012002F0DEF90220FFF78D
:404A40006DFF0348006801692046884738BD0000740D002010B5034A0178117002F0AAFE002010BD560D002070B50446FFF7C2FF002801D00C2070BDA27B01211F48002A84
:404A8000827801D00A4301E05208520082706279012A14D0C17849084900C170184D2868016820468847207901280CD06188208803F01CFF2080207904280FD015E0C2782E
:404AC0000A43C270EAE72868C168E01D8847E01D02F0F0FE0B48808C208006E02868C168E01D8847E01D02F0E5FE074920798870204602F06DFE002070BD0000441500205E
:404B0000740D0020FC140020560D002008B50178FFF770FF814201D10C2008BD002914D0072069460870FFF745FF012807D10121684600F08BF8012801D0092008BDFFF749
:404B40001BFF02F079FE012011E0FFF733FF012806D1684602F09CFA6846007800F0C6FA02F060FEFFF746FF0028FBD10220FFF7D5FE002008BD000010B5034A01785170D1
:404B800002F01EFF002010BD560D002038B568460DF0C6FC002801D01F2038BD01210098C90201804180002505714571857107214173857302F00CFE009C202200212046AC
:404BC000FCF7ACFE25702A460021601CFCF7A6FE204602F0EFFD204602F0F2FE00980DF009FD042200210248FCF798FE002038BD560D00200346084800B5834209D81846B4
:404C000000F0CAFF002804D00089984201D1012000BD002000BD0000FF0E0000074A9179491C8906890E917138220A4092014907090E1143084302490840704744150020DA
:404C4000FF0E0000C006C00E70470000F8B507460E4600240D4803E0002C01D0002500E005462979002905D0641C2406240EF3D00020F8BD0021204601F0B6FC2E712046A2
:404C8000FFF7CCFF28813C700120F8BD6415002010B504F041FB0222002100F003F802F0FFFB10BD10B5094B40074907000F090F185A595A40185043C0086421FCF7EEFC80
:404CC000002800D1012080B210BD0000D4540100F7B53D20405C88B015460C46002802D02878042802D200200BB0F0BD6946087200262046FFF7CAFA012800D001262046D1
:404D000003A938300191009023460327A17E34333246206A04F02AFB02A8089900900B46019120463A4603A9243004F07FFA02466846007A2870204601F042FC1046D3E74B
:404D4000FFB587B00C4605461078694608723D20005D1746002826D000262046FFF796FA012800D00126204603A93830019100902346A17E34333246206A04F0F7FA02A877
:404D80000090291D019120462B1D03A924300A9A04F04CFA02006846007A388002D1204601F00EFC10460BB0F0BDF0B505463C20405C89B016460C4600280CD03078694601
:404DC0000873002806D000272046FFF75FFA012803D003E01F2009B0F0BD012703200890204604A93830019100902346E17E34333A46E06904F0BAFA6846007B03A92818A5
:404E00000290009120462B46019504A92430089A04F040FA02466846007B3070204601F0D9FB1046D7E7FFB505463C20405C89B016460C46002810D0084601F057FC012820
:404E40000BD0308869468883002809D000272046FFF71CFA012805D005E000200DB0F0BD0220FBE70127204603A93830019100902346E17E34333A46E06904F077FA291D73
:404E80002B1D07A8129A6D4607C5204603A924300C9A04F0FFF902466846808B3080204601F098FB1046D9E710B518490446484028D0002101231A468A40904221D0491CA0
:404EC0002029F8D300212046C840C243520618D0400616D0491C1929F5D3A0B2210C020AC3B2884201D193420BD01F21204600F0D4F9182805D8A00E062100F0CEF90228AD
:404F000001D2002010BD012010BD0000D6BE898E70B50D460446FFF7B9F901280AD0E87AA97A00020143A07802F094F9012808D0002070BD00222421204603F013FC2420E8
:404F400070BD28214C200155204600F02FFD282070BD0000002801D0002000E003484030C07F012800D0002070470000641500200146002049070ED50021084B03E000298C
:404F800001D0002200E01A461279022A04D0491C0906090EF3D0704701207047641500200146002049070ED50021084B03E0002901D0002200E01A461279022A04D0491C80
:404FC0000906090EF3D07047012070476415002010B5044680346068002803D00DF01EFB0020606010BD38B50546002000902846FFF74CF901281FD1284601F062FB0028C9
:405000001AD028792C46C01E40340300FDF77CFA07050511110511141100284601F06CFB012806D068460DF08BFA002805D0012008E060780028FAD038BD2846009903F092
:4050400033FA0220607038BD40304170704740308170704770B50546403528780C46052904D0002C05D1801E022802D8022003F0E9FB2C7070BD0171704792001018C166E3
:40508000704770B53C2501F0ADFD040004D020460021433002F07CF8FF222946204600F025FD002C02D0A07801F018FD70BD000010B5002801D0002000E00348002802D08C
:4050C000008904F0BEFE10BD6415002010B5002801D0002000E00448002804D00179072901D100F093F810BD6415002010B501F079FD002802D0807801F0F0FC10BD10B521
:405100004121095C012901D1FFF76DFF002010BD70B50546008A00281ED01049F122897A1140C90618D5294640314A8A098A521C4A4392B2D10800D10121540801E0621AC6
:4051400094B2A042FBD9FEF7A5FE012804D1298AA878224602F044F970BD0000FC14002010B50023054C0B60248A944204D992001018C26E0A60C36610BD00001C16002035
:40518000FEB506460020009001908020855968460DF0D6F9002801D00720FEBD20213046009FFFF7E0FB34464034A08AE080608AA080208A2081304603F0D4FBA88C218AD1
:4051C000884207D1288A618A884203D1688AA18A884203D0F07920210843F071688AA082288A6082A88C2082E98CE182FEF7ACFFE081208AFEF7B8FF60733946304603F05A
:405200007BF90120A0700198FEBD000038B5044600200090A079002814D14020015D052901D00E290ED168460DF08AF9002809D12046009903F074FA03481021C28A2046D7
:40524000FFF786FB38BD0000FC14002010B50446807803F0B7FB204601F0CCFB002010BD10B50B4604460146184602F01FFD002802D020460DF0C8F910BD13B5044601AA20
:4052800011460620FDF798FF6846818861811CBD002800D102207047704770B500231A46491E0CE00446D440E507ED0F541C0646E640F407E40FA54200D05B1C521C8A4272
:4052C000F0D3D8B270BD0000F8B504462346401D543300909A1EA078911E01F0FDFE25464035A88A298A8000FCF7D8F9401E81B2688A884203D96982A07802F01BFC204651
:405300000021433001F044FF27480088E88104F003F8E989891C8AB26179FFF7C3FC02F0BFF803F0F9FF2A8A6179FFF7BBFC074602F0AAF8688A002806D01C49088A0322B8
:4053400012021043088202E0002002F0E7FB1748803801886E8A002E0CD0304648431449FCF78CFA0004000C01D0401C80B21149488002E00F4800214180288A704381B2A9
:40538000A07802F02BFBFF2228374932B9B21346204603F0D1FAE98AA07802F057FAA07801F008FEF8BD000080102E40E0112E40710200005A0D002030B50021124C0A463D
:4053C000A05C002308E0C50701D0491CC9B201290AD840085B1CDBB20028F4D1012903D8521CD2B2052AEBD302290BD207488118C87B0122082B03D29A400243D0B200E021
:405400001043C87330BD000000160020441500207FB504468034616805460E46183108226846FCF772FA31462031082202A8FCF76CFA102168460DF01DF860681021083011
:405440000DF018F860682B46083024331022694603F00CFF7FBD10B504460821FFF783FA10212046FFF77FFA2079052822D0062820D008281DD12189002004F02DFC072089
:4054800020712046FEF702FF012819D00E212046FFF7E0FD002158200155204601F030FB2046FFF795FD2046FFF732FE2046FFF726FE10BD20890122002104F0F1FBDEE7BB
:4054C0000521E4E7FFB581B01F4604460821FFF74AFA10212046FFF746FA2079082803D0092804D0042503E00425012601E009250026204601F0DCF800212046FFF7AAFD76
:4055000025712046FFF764FD0398002E02D0012808D00BE001280AD120890022029904F0BFFB04E02189029804F0D6FB01272046002140300176012F07D0204601F0E0FABE
:405540002046FFF7DCFD05B0F0BD02990173204603F034F9054605480121C28A2046FFF7F7F9002DEFD109202071ECE7FC14002070B50C460546FEF789FE012809D1082199
:405580002846FFF7F0F90023012221462846FFF799FF70BD10B5044601F08AF82046FFF717FD00212046FFF755FD10BD70B505461A24FEF76BFE012809D108212846FFF79E
:4055C000D2F90023012221462846FFF77BFF70BD38B505460021684600910CF0B1FF002801D00D2038BD2846009C01F0B9F82146284603F03FF806480821C28A2846FFF7F7
:40560000A7F906212846FFF725FD002038BD0000FC140020F8B50446002000900E4668460CF08EFF002801D00D20F8BD204604213430009D00F0ABFA84200059082118303C
:4056400000F0A5FA012E02D1204601F089F82946204602F097FF06480821C28A2046FFF777F902212046FFF7F5FC0020F8BD0000FC14002010B50446FFF7CAFE0321204609
:40568000FFF7E8FC204601F03BFB10BD10B50021FFF7C0FF10BD000038B504460021684600910CF04DFF002811D12046009A00F0FFFF1146204602F0E8FF05480821C28A1F
:4056C0002046FFF745F907212046FFF7C3FC38BDFC14002038B504460021684600910CF02FFF002810D12046009903F05CF807480821C28A2046FFF72BF904212046FFF7D3
:40570000A9FC204601F0FCFA38BD0000FC14002010B5FFF7A0FE10BDF8B50446002000900E4668460CF00CFF002801D00D20F8BD8420005908212030009D00F028FA204616
:405740000421383000F023FA002E02D1204601F007F82946204602F03CFF0F480821C28A2046FFF7F5F8204601F041FA00280AD0204600F027F8002803D009212046FFF797
:4057800069FC0020F8BD08212046FFF763FC204601F0B6FAF5E70000FC14002010B54021095C082906D0092908D00A2901D100F097F810BD0B21FFF74DFC10BD00F002F8A9
:4057C00010BD000070B504460079052805D0062803D0082811D00C2070BD03220621204602F0C0FF0F480821C28A2046FFF7B0F811212046FFF72EFC12E0254606214035A3
:405800002973204602F0DAFF0646AA8A0A20424301212046FFF79CF8002E01D109202071002070BDFC14002038B504460020009068460CF085FE002801D00D2038BD20468E
:40584000009D00F0BBF908202071204600F088FF2946204602F019FF00213D2001550F212046FFF7F7FB204601F04AFA002038BD10B5024600F01CFF10211046FFF7EAFBF6
:4058800010BD10B50446FEF701FD012809D04020005D112805D100231A4606212046FFF711FE10BD10B5FFF7D6FD10BD38B504460021684600910CF043FE00280DD12046CE
:4058C000009902F070FF05480821C28A2046FFF73FF80D212046FFF7BDFB38BDFC14002038B504460021684600910CF029FE002801D00D2038BD2046009902F049FF064896
:405900000821C28A2046FFF723F80C212046FFF7A1FB002038BD0000FC14002000787047F8B50025002801D0002400E01B4C002C2BD0204600F0C5FE002826D0207903288A
:405940001FD005281FD026464036B18AA07802F04FF8B078012818D10021204602F0D6F9274680373868002802D00CF057FE3D600020B0702046FFF7C2FB2079072805D08A
:4059800007E0042000E006202071F8BD2046FFF7BFFB0221204601F0CDF9F8BD6415002010B54C22115400F04CF810BD10B50446FF21FEF7D8FF09202071A07802F03EF85E
:4059C00010BD000038B5FF216A461180002801D0002400E0084C002C0DD011460620FDF7EBFB684601882046FFF747FC03480068C1692046884738BD641500208C0D0020AC
:405A000010B504468079002809D022214C200155FF212046FEF7A7FF204600F012F810BD10B5037902464032002B03D01173092B02D003E0002100E02221117300F001F8F3
:405A400010BDFEB50446008900270090278120792646403600281AD0012818D0022816D0002002F0EFFE09E002AA01A9204602F00BF9002807D101980CF0C6FD204602F07C
:405A80002BF90028F0D02046FEF73CFBB776254680352868002802D00CF0C0FD2F606868002802D00CF0BAFD6F60317B002919D0009800F065F8A078002101F0ADFA204603
:405AC000FFF7E6F8A07801F0AFFBA07801F006F8FF212046FEF747FF0B20FEF71FFF00F0A1FEFEBD1F213173E2E70000F8B517460E46054603F0FAFB04003CD020460C30DF
:405B000001F036FB2046062200211830FBF706FF2046062200211230FBF700FF1648224600683946436A28469847074626702846FEF7ACFB012148406070002D10D02889A7
:405B4000608028464030C1782171002E0FD169796171018AE180418A2181808A608106E00648008BC005C00F2071002060803946204604F034F8F8BD740D002000102E40D9
:405B80000A4610B50146002004F073F910BD10B50CF04CFA10BD000000B50146FFF752F8002801D0002000E00348002802D002898A4200D0002000BD6415002038B504461A
:405BC00080346068002806D168460CF0C9FC002801D100986060606838BD000010B5014600F084FD0128887802D0FEF759FB10BD8C214843024940186030007F10BD000067
:405C00004415002070B5054604464035A87F012811D1A1788C20084A484380186030067F3046FEF72BFD002805D10220A877A078314601F0A3FB70BD4415002010B50C4C88
:405C4000A07A002813D0FEF7C5FD0A48027F417F408B00F0FBFD012809D10020A07201F035FA05498989090B01D000F0AFFB10BD0016002044150020A0102E4070477047C6
:405C8000490510B5490F0B00FCF73EFC060704080C0C0F073E21FFF783FE10BD0821FFF7BFFE10BDFFF7CDFE10BDFFF7A9FE10BDF8B507460025002D01D0002600E0204E25
:405CC00001F0C0F93046403044890021418101F0C3F9304600F0F5FC01282BD1A00702D52846FFF71DFEE00602D52846FFF76AFEA00601D5FEF76EFD600601D500F024FD8C
:405D0000200602D5284600F01DF8600702D5284600F004FC380402D52846FFF7D7F9780402D52846FFF7C4F9E00703D021463046FFF7A6FF6D1C2D062D0EBCD0F8BD000032
:405D400064150020F8B5002801D0002400E0314C002C5DD025464035A878012858D1FF278820493700593E46002805D02A49897A890601D5878AC68A2046FEF787FA01284F
:405D80000CD10096E88A2A8A3B46014602F0B2FDE882A2780146104601F058FD2046FEF775FA012834D003F0B7FA2A8A6179FEF779FF009001F068FB00983346283081B264
:405DC0003A46204602F0B8FDE98AA07801F03EFD12480188688A124E002810D048431149FBF74CFD0004000C01D0401C80B27080A07DC107C90F002001F062FE01E0002074
:405E00007080288A698A484381B2A07801F0E6FDF8BD000064150020FC14002060112E405A0D00207102000001490968096808478C0D002070B505460088FFF7ADFE0400FB
:405E40002AD000F03EFC002826D02079092823D0204600F067FC012820D02046FEF716FA0646E07920210843E071204601F066FF002815D0294600F035FF4220005D002821
:405E800010D02325E079DF210840E0712946204602F0A3F8284670BD022070BD3A2070BD072070BD002E05D02046FFF769F90500E8D1EFE70C2070BD70B50E460C2500F059
:405EC00075FE040012D0002522892946094803F0D9FBFF2202212046FFF708FEA07801F07FF82046FFF7ADFD022000E000203070284670BD0E200000FEB5044600F056FEFA
:405F0000002801D00C20FEBD022101A8FEF79EFE012859D168460079304F002801D0002601E03E462036002E4ED000213046FFF791F83546002040356870A8700620FEF7D4
:405F4000EDFC208A6882228AE189A08902F036FD28820246608AFF23A88249330093E18AA08A02F0C7FCE882288AFEF7FDF86873288AFEF7E9F8E881184806228778A11DA8
:405F8000AC30FBF7C2FC207901281FD06079E870A01D01F08FFCFB20074010488770217EC278012917D0FB210A40C2700C4821460068826830469047B178204601F04CFAE7
:405FC0003046FFF743F9FEBD0920FEBD0020E87004200743E1E704210A43E6E744150020740D002070B50D460026194A0146002801D0002401E014462034002C26D02046D7
:4060000000F074FB01280AD18C20484380186030007FFEF733FB002801D102F041FB0D48006881692046884700280CD020464030817EA94202D3491B817600E0867620897F
:40604000294603F08AFE204600F05AFE70BD0000441500208C0D002070B503460088FFF79BFD040013D000F02CFB00280FD02079092819D02546997840352973204602F008
:406080009DFB0646A878012803D0AA8A02E0022070BDEA880A20424301212046FEF758FC002E01D109202071002070BD0EB5002217216B460292198100905A810120029B5D
:4060C00000990CF04BFB0EBDF8B518480024807A002822D1164E0025B089000B22E0204601F066F81249A039401807882A462146384600F0ABFB012810D00E4801224783DE
:4061000005770A4944778A72002D01D0002000E02030002801D000F0F3FDF8BDB089000B641CE4B20028DAD1F8BD000000160020A0102E404415002010B50446C0060ED596
:4061400000200B4A03E0002801D0002100E011460979022909D0401C0006000EF3D00548006881692046884710BD00F04DF8F6E764150020740D002010B50088FFF70CFD84
:40618000040007D04020005D082805D00B2803D00C2010BD022010BD2046FFF713FB002803D009212046FEF755FF002010BD70B503460088FFF7F0FC040008D02546403595
:4061C0002878082805D00B2803D00C2070BD022070BD8420005910220830991CFBF795FB2046FFF715F92878082804D02046FFF777FB002803D00A212046FEF72BFF2046C1
:4062000000F07EFD002070BD70B51C4D002801D0002401E02C4620342179022904D0002901D001F00BFC70BD01225B210A5500F0D3FF032020710820FEF770FB0021204619
:40624000FEF708FF0121204600F074FD204643300121064600F09CFF09480068016A30468847024600212046FFF740FCA078FFF7DBFDA87B401CA87370BD000044150020D7
:40628000740D002010B50C46002121700088FFF783FC03000BD000F014FA002807D00948F121807A0840C00603D4112010BD022010BD022020701A8A1889002103F0F6FD6F
:4062C000002010BDFC14002070B50088FFF764FC040008D000F0F5F9002804D0E079C10903D0002070BD022070BDC1068025002908DA2843E07108480221C28A2046FEF7E9
:4063000027FBEEE7204600F065FA0028ECD1E1792943E17170BD0000FC140020F8B50F46002100910088FFF737FC040012D000F0C8F900280ED0E079410641D4617E022699
:406340004A07002A08DB8907402500291ADA2843E07135E00220F8BD02F0C8FF0021017021894180A1898180217E4170E189C1803E7005460178134803F044FA284603F0CA
:4063800038FD1DE0204600F0B7F9012806D068460CF0D6F8002803D00720F8BD2A20F8BDE07900992843E071204602F031FA607E0421304360760448C28A2046FEF7C8FA26
:4063C0000020F8BD1D040000FC1400203EB500220F236C460292238100910190628169460EC900200CF0BAF93EBD0000F8B50F46054600F0F7FB040033D00320207125469C
:4064000000264035EE76E6702046FEF75DFF01F009FA0920FEF782FAA07800F0F3FE0121204600F087FC00212046FEF713FE6E70AE703A4600212046FFF758FB0B49887B9E
:40644000401C8873A078FFF7EFFC00F0AFFB040006D00648AC3001F02DFA2046FEF7F6FEF8BD284601F0EAFAF8BD000044150020F8B50446002000902088FFF78DFB0500CF
:406480001AD0FDF703FF002812D02348807AC00710D0284600F015F900280DD0287903280CD004280AD0072808D009282AD103E00C20F8BD1120F8BD0220F8BD2F46403727
:4064C000387801281ED02846FFF778FB06001BD00822211DFBF719FA3046A1782030017261881022090A417221460C311838FBF70CFAB878002809D001212846FEF7AAFD24
:406500000098F8BD0D20F8BD0720F8BD284600F053FA0090F8BD0000FC14002010B5002801D0002400E00B4C002C11D0214640314878022801D100204870A07DC107C90FE1
:40654000002001F0BDFA2046FEF7D9FDFEF766F910BD00006415002070B503460D460088FFF71AFB04000BD000F0ABF8002807D01248F121807A0840C00603D4112070BDFA
:40658000022070BD20464030418A008A491C41430804C10C5888884201D2122070BD20822079072802D12046FEF7B2FD022028702089002103F0A2FC002070BDFC140020EA
:4065C000016A491C016204D1817E491C4906490E81767047C169491CC16104D1C17E491C4906490EC1767047F0B5064687B003A8009005A800270D460190002E01D00024DF
:4066000000E01C4C002C05D06846FBF7D5FD002803D00BE0022007B0F0BD68460089C00704D18C2200212046FBF778F9124829460068826820469047050018D1A67067768F
:40664000277100212046FEF705FD204600F030F8204601F03DFB094820825E2007550848F121807A084000D001202075E782E8B2D1E70000641500208C0D0020B80B000030
:40668000FC14002010B50020074B084AFF2119541418401CC0B221740428F8D31F2119541018017410BD00000016002044150020002101628176C161C176203001774177F4
:4066C00070470079002805D0012803D0022801D0012070470020704740304078012803D0022801D000207047012070474030807F002800D00120704740300078002807D0D3
:40670000012805D0052803D00E2801D0012070470020704710B5807801F05AFA002800D0012010BD074A0146927B0020002A07D040314A78022A02D08978012900D10120A9
:40674000704700004415002010B500F0BFFC03498989090B01D0FFF739FE10BDA0102E4070B5054604464035A87F002825D1FF206075A0788C21154A484380186030417F1F
:406780008C23491CC9B24177A0785843104B8018DB896030994201D300214177A0788C21484380186030467F0677A1783046FDF765FF002802D00120A87770BD0220A87727
:4067C000A078314600F0DAFD70BD0000441500201C16002038B5002105460091FFF78CFF012806D068460BF0ABFE002803D0072038BD2A2038BD2846009CFDF747FD0028CF
:406800000BD02146284601F0FFFE05480221C28A2846FEF79DF8002038BD112038BD0000FC14002070B50024074D03E0002C01D0002000E02846FEF762FC641C2406240E81
:40684000F4D0002070BD000064150020F0B515468207920F85B0000A02926A469080002D01D0002400E0524C002C28D0084600F09FFC07466846808800280BD0029801284B
:4068800043D0022841D003280BD03D20005D012870D087E04748381801882046FEF7EDFC80E00020029002A80BF02AFE002807D03D20005D012878D12046FFF781FE74E015
:4068C0006846029E8388324600213846FCF786FB3848381801882046FEF7CFFC284600F089FB01AA21463046FEF7F2F9002806D030460BF075FE3D204C21085528E0F5776E
:406900003146204601F0E6FB4FE0002000902089039068460BF0E4FD002802D0002005B0F0BD6846009E8388321D00213846FCF755FB2048381801882046FEF79EFC28465B
:4069400000F058FB25464035287E00280CD103E02046FFF72BF828E001AA21463046029BFEF7EEF9002806D030460BF02FFE3D202873EDE713E00298FEF78EFC0146039888
:40698000307003980901000A0843707068468088B070000AF0703046FFF788FB05E02046FFF70EFE284600F025FB0120B7E700006415002000102E4070B501790546032977
:4069C00004D0042904D0072908D109E0052400E006240121FEF71EFE002805D00D2070BD0824FEF7F5FDF7E7284600F089F92C71002070BDFEB5064602F078FC044602F0B7
:406A00006EFC074602F061FC054602F073FC029002F082FC01902570280A6070280CA070280E3546E0704035687B20716771380AA071380CE071A87B2072E8892549000AEE
:406A40006072287CA072288A0522000AE072A87C2073688A000A6073287DA073A88A000AE073204610300091FAF74FFF0027F770B078009900F0F6FF777101984101029885
:406A800067750143A175080AE07503E0298A49004018308000F03EFB3188042200F0E6FB01283088F2D00C4F38801821204600F0BBFCA88A298AC000FAF7F0FD3881B07819
:406AC00000F06CFAE98AB07800F0C0FE00F07EFAFEBD00005415002000122E4010B5074A917B002901D0491E91730021FFF77CFD002801D0002010BD012010BD4415002067
:406B0000F8B5074606464037B87F00282DD0B0788C2100904843234945186035287F0099FDF7C1FD01281ED0287F401CC4B21E48C089A04200D800240020B877FF276F7784
:406B40002F77A87702460146009800F0BDFD717DFF2903D0304601F07CF8777501F0A0FD0025114F19E00320B877F8BD00200090224669463046FEF7F3FA0099002904D007
:406B8000FF231A463046FDF7A6FD641CF889E4B2A04200D800246D1CEDB2F889A842E5D8F8BD0000441500201C16002000B5022000F002F800BD000010B502460021084B02
:406BC00003E0002901D0002000E018460479944204D0491C0906090EF3D0002010BD00006415002000B50120FFF7E6FF00BD10B5044602F07BFB2189018080346168416031
:406C000061682831816003F081F810BDF7B50646087982B00C46092807D0A078F0770846FFF764FD012806D010E030460BF0ECFC022005B0F0BDA1788C20294A48438018C8
:406C40006030007FFDF71AFD012810D0A078FEF781F901280BD037780121304601F00EFC25462035062F38D00B2F0FD107E06846027C21463046FEF7F3FA0D20D9E72046E8
:406C8000FDF704FB012801D1002028772046FEF7A5FF054604AA21463046FEF786F801205F2108556946097C002001910090A07833463A46294600F00BFB69460A7CA078A8
:406CC0000323294600F0E4FEA0782946FDF7F8F930460BF099FC0020ABE70120D5E70000441500208A8802804A884280CA8882800A89C2808A890281498941817047000081
:406D000010B502464032937F0021002B03D1927E002A00D00121064A927A002A00D000210279092A00D10121807800F0E9FE10BD0016002070B50C460546FDF7A7FA00280D
:406D40000BD1012C06D92879092806D02846FFF7E1FC0446002C02D004E0012402E0A87DC007FAD1A87DC107C90F204600F0A8FE70BD00000B4B01280BD002280BD00428DF
:406D80000BD008280CD10748A03002820548A83005E0202002E0382000E05020C01801807047000000102E40014908817047000000102E4010B50446FF20F130012C04D08E
:406DC000022C05D0042C08D105E0FF20D53004E0FF20D93001E0FF20DD30002200F0C2FE034A108A034980B2A0430880108210BD00102E405E0D0020034B198A034A89B2E2
:406E0000814311801982704700102E405E0D002010B50446012806D0022C07D0042C11D0082C07D111E0FF20D53001E0FF20D93000F090FE0648018A064A89B2214311807D
:406E4000018210BDFF20DD30F2E7FF20F130EFE700102E405E0D0020034B198A034A89B2014311801982704700102E405E0D0020F8B505460120A84086B214460F460122EA
:406E800031467C2000F06EFE3A463146782000F069FE6078267800020643E078A2780002024360792379000203430C2045430D2080010549281844182680001D4418228039
:406EC000001D40180380F8BD00102E40401880B270470000CB065B0E0343480901021943D00108430121C902084301490881704780142E404278037812021343084A138290
:406F0000C37880781B021843908248780B78000203431383C8788978000201439183704700142E40024A1080000C90801181704700142E40044A002180180288491C89B2AB
:406F40001029FAD37047000000102E40024A10820148803081817047A0102E4010B5054A1082084600F022FE024A0021A03A8018018010BDA0102E4010B50B46044600F089
:406F800005F819462046FFF7E1FF10BD024A10820148803001817047A0102E4010B504490882FF20012220211D3000F0DBFD10BDA0102E4010B504490882FF200022202101
:406FC0001D3000F0CFFD10BDA0102E4000B50349442008800420FFF73FFF00BD00102E400349088202494520A039088070470000A0102E40000202494D3008807047000058
:4070000000102E40034A1082024880308088401880B27047A0102E4010B5084B074C0202A03B0029208202D075321A8010BD04490020088088807632F7E70000A0102E40FC
:40704000201A2E4000B5034908884880FFF7D4FE00BD00005E0D002000B502484088FFF7FBFE00BD5E0D002010B5FCF765F910BD014952200880704700102E40884201D802
:40708000081A03E00022D243101A401880B2704700210170704710B50B4602460021F820FBF79CFF10BD00000748808806492039098B884201D8081A03E00022D243101A53
:4070C000401880B27047000020112E400148008AC0B27047A0102E4070B5084C049D2082074804890548603006880E8001891180808818806007400F287070BDA0102E40B1
:40710000E0112E40024908820148803080887047A0102E400148008970470000C0102E4000280FD00D4A108B0870000A4870908B8870000AC8700948203000880871000A4A
:4071400048717047064A10880870000A487090888870000AC8701089F0E7000040102E40C0112E400148008A70470000001A2E40064B1A8999891B8A0270120A42708170C0
:40718000090AC1700371190A4171704760102E40012904D00549098BC90B017070470349403109898907C90FF7E7000000102E4001484089704700001C160020044A1082C3
:4071C0000448028980894843101880B270470000A0102E401C16002000B5084908828C21074B4143C918FF2260314A770A7700228A77114600F068FA00BD0000A0102E4014
:40720000441500208C21074B414300B5C918FF2260314A770A7700228A77114600F054FA00BD0000441500208C225043074A10B58018FF21603041770177002181770448A6
